:100000000C9434000C9451000C9451000C945E013B
:100010000C9451000C9451000C9451000C9451001C
:100020000C9451000C9451000C9451000C941A0142
:100030000C9451000C9451000C9451000C945100FC
:100040000C9451000C9491010C9451000C945100AB
:100050000C9451000C9451000C9451000C945100DC
:100060000C9451000C94510011241FBECFEFD8E026
:10007000DEBFCDBF11E0A0E0B1E0EAE4F7E002C0EE
:1000800005900D92A430B107D9F721E0A4E0B1E0CA
:1000900001C01D92A431B207E1F70E9404020C9442
:1000A000A3030C940000E1E8F0E080818860808385
:1000B0001092850010928400EFE6F0E0808182606B
:1000C00080833C9A3B9A3A9A209100013091010139
:1000D000409102015091030160E07CE782E998E4DD
:1000E0000E9407026093090170930A0180930B013B
:1000F00090930C0184B1806384B98CB580648CBD0D
:100100008CB580688CBD2098289AE8E6F0E0808164
:1001100081608083EBE6F0E0808181608083789469
:100120000895439A81E080931201089543988FEFD8
:10013000809312010895CF92DF92EF92FF92CF93B6
:10014000F8946091090170910A0180910B019091DE
:100150000C01C0910F0120E030E048EC52E40E9415
:1001600036036B017C016C2FCC0F770B880B990B3E
:100170000E94AA029B01AC01C701B6010E940702BE
:100180000E94790270938900609388002091100189
:100190003091110180910D0190910E0128173907BE
:1001A000C4F40E949100109285001092840081E0B6
:1001B0008093130180918100816080938100809100
:1001C0006F00826080936F00429A789481E090E0A3
:1001D0001DC0209110013091110180910D0190916D
:1001E0000E01821793071CF40E949600DCCF209129
:1001F00010013091110180910D0190910E0128178D
:10020000390789F61092130182E090E0CF91FF90B8
:10021000EF90DF90CF900895EFE6F0E080818D7F42
:100220008083E1E8F0E080818E7F808342981092A5
:10023000130108951F920F920FB60F9211242F935E
:100240003F934F935F936F937F938F939F93AF935E
:10025000BF93EF93FF93189B03C0349B12C0449845
:10026000FF91EF91BF91AF919F918F917F916F918E
:100270005F914F913F912F910F900FBE0F901F9064
:100280001895449A209112018091100190911101CA
:10029000820F911D27FD9A95909311018093100173
:1002A000209110013091110180910D0190910E016A
:1002B00028173907A9F60E940C01D2CF1F920F927E
:1002C0000FB60F9211242F933F934F935F936F9329
:1002D0007F938F939F93AF93BF93EF93FF9310926E
:1002E0000801109207011092060110920501109268
:1002F0000401189B13C00E949B00FF91EF91BF91D6
:10030000AF919F918F917F916F915F914F913F91AD
:100310002F910F900FBE0F901F9018950E940C0107
:10032000ECCF1F920F920FB60F9211248F939F93D1
:10033000189B2BC080910801811127C0809110016A
:10034000909111019EBD809108018F5F80930801FB
:10035000189937C08091080181113AC08EB58093F9
:10036000070181E08EBD809108018F5F80930801B5
:1003700080910801843011F4809107018091080177
:100380008430F9F4809107011CC0189B0AC0809149
:100390000801813031F480911001909111018EBDDE
:1003A000D2CF189BD5CF80910801823089F68091F9
:1003B00013018EBD809108018F5F80930801109218
:1003C00008019F918F910F900FBE0F901F9018956D
:1003D00080910801813029F48EB58093060182E076
:1003E000C1CF80910801823029F48EB58093050138
:1003F00083E0B8CF80910801833009F0B9CF8EB582
:100400008093040184E0AECF0E945300FFCF0E948E
:100410001B020C94FC020E94F50258F00E94EE02AE
:1004200040F029F45F3F29F00C94E50251110C943F
:1004300030030C94EB020E940D0368F39923B1F38F
:10044000552391F3951B550BBB27AA2762177307FA
:10045000840738F09F5F5F4F220F331F441FAA1F8E
:10046000A9F335D00E2E3AF0E0E832D0915050404A
:10047000E695001CCAF72BD0FE2F29D0660F771FF8
:10048000881FBB1F261737074807AB07B0E809F0DE
:10049000BB0B802DBF01FF2793585F4F3AF09E3F63
:1004A000510578F00C94E5020C9430035F3FE4F3BF
:1004B000983ED4F3869577956795B795F7959F5FA6
:1004C000C9F7880F911D9695879597F90895E1E0F2
:1004D000660F771F881FBB1F621773078407BA0751
:1004E00020F0621B730B840BBA0BEE1F88F7E095AC
:1004F00008950E94150388F09F5798F0B92F992707
:10050000B751B0F0E1F0660F771F881F991F1AF0FE
:10051000BA95C9F714C0B13091F00E942F03B1E031
:1005200008950C942F03672F782F8827B85F39F030
:10053000B93FCCF3869577956795B395D9F73EF497
:1005400090958095709561957F4F8F4F9F4F08953F
:10055000E89409C097FB3EF490958095709561955D
:100560007F4F8F4F9F4F9923A9F0F92F96E9BB2713
:100570009395F695879577956795B795F111F8CF8F
:10058000FAF4BB0F11F460FF1BC06F5F7F4F8F4FFA
:100590009F4F16C0882311F096E911C0772321F0F0
:1005A0009EE8872F762F05C0662371F096E8862F88
:1005B00070E060E02AF09A95660F771F881FDAF7DF
:1005C000880F9695879597F9089597F99F6780E822
:1005D00070E060E008959FEF80EC089500240A9495
:1005E0001616170618060906089500240A9412160E
:1005F0001306140605060895092E0394000C11F441
:10060000882352F0BB0F40F4BF2B11F460FF04C0ED
:100610006F5F7F4F8F4F9F4F089557FD9058440F46
:10062000551F59F05F3F71F04795880F97FB991F51
:1006300061F09F3F79F0879508951216130614060E
:10064000551FF2CF4695F1DF08C01616170618069B
:10065000991FF1CF86957105610508940895E89476
:10066000BB2766277727CB0197F908950E94490396
:100670000C94FC020E94EE0238F00E94F50220F079
:10068000952311F00C94E5020C94EB0211240C94C8
:1006900030030E940D0370F3959FC1F3950F50E056
:1006A000551F629FF001729FBB27F00DB11D639F24
:1006B000AA27F00DB11DAA1F649F6627B00DA11DCA
:1006C000661F829F2227B00DA11D621F739FB00D70
:1006D000A11D621F839FA00D611D221F749F3327E0
:1006E000A00D611D231F849F600D211D822F762F79
:1006F0006A2F11249F5750409AF0F1F088234AF056
:10070000EE0FFF1FBB1F661F771F881F91505040C1
:10071000A9F79E3F510580F00C94E5020C9430033C
:100720005F3FE4F3983ED4F3869577956795B79548
:10073000F795E7959F5FC1F7FE2B880F911D969562
:0A074000879597F90895F894FFCF0C
:04074A000000FA436E
:00000001FF
